:020000040800F2
:10000000880200208D01000891010008930100087A
:100010009501000897010008990100080000000000
:100020000000000000000000000000009B0100082C
:100030009D010008000000009F010008A1010008C8
:10004000A3010008A3010008A3010008A301000800
:10005000A3010008A3010008A3010008A3010008F0
:10006000A3010008A3010008A3010008A3010008E0
:10007000A3010008A3010008A3010008A3010008D0
:10008000A3010008A3010008A3010008A3010008C0
:10009000A3010008A3010008A3010008A3010008B0
:1000A000A3010008A3010008A3010008A3010008A0
:1000B000A3010008A3010008A3010008A301000890
:1000C000A3010008A3010008A3010008A301000880
:1000D000A3010008A3010008A3010008A301000870
:1000E000A3010008A3010008A301000800F002F822
:1000F00000F03CF80AA090E8000C82448344AAF186
:100100000107DA4501D100F031F8AFF2090EBAE883
:100110000F0013F0010F18BFFB1A43F0010318473B
:100120009C050000BC050000103A24BF78C878C1C7
:10013000FAD8520724BF30C830C144BF04680C60ED
:10014000704700000023002400250026103A28BF35
:1001500078C1FBD8520728BF30C148BF0B60704739
:100160001FB500F0A3FA1FBD10B510BD00F02BF8AD
:100170001146FFF7F5FF00F041FA00F049F803B42B
:10018000FFF7F2FF03BC00F053F8000008480047F7
:10019000FEE7FEE7FEE7FEE7FEE7FEE7FEE7FEE737
:1001A000FEE7FEE703480449024A044B704700009B
:1001B000ED00000888000020880200208800002050
:1001C000704770477047754600F028F8AE46050046
:1001D0006946534620F00700854618B020B5FFF762
:1001E000E1FFBDE820404FF000064FF000074FF060
:1001F00000084FF0000B21F00701AC46ACE8C00945
:10020000ACE8C009ACE8C009ACE8C0098D4670474D
:100210000446AFF300802046FFF7B1FF0048704767
:100220002800002001487047704700002C00002083
:1002300003494FF01800ABBE7047000009000000F2
:1002400026000200704710B500F0D0F800F010F85A
:1002500010BD704708E0421E90B2002101E04A1C28
:1002600091B2B1F5C87FFADB0028F4D170470000E5
:1002700008B50121042000F0A9F80121082000F0B0
:10028000A5F80121102000F0A1F80121202000F0A4
:100290009DF8FF20ADF8000010208DF8030003202A
:1002A0008DF802006946024800F004F808BD00001D
:1002B000000801402DE9F041002200230024002520
:1002C0000026002791F803C00CF00F0291F803C03C
:1002D0001CF0100F03D091F802C04CEA0202B1F8F2
:1002E00000C01CF0FF0F31D0066800242BE04FF057
:1002F000010C0CFA04F5B1F800C00CEA0503AB429E
:1003000020D1A5004FF00F0C0CFA05F7BE4302FAFE
:1003100005FC4CEA060691F803C0BCF1280F06D193
:100320004FF0010C0CFA04FCC0F814C00AE091F87C
:1003300003C0BCF1480F05D14FF0010C0CFA04FCCE
:10034000C0F810C0641C082CD1D30660B1F800C0FE
:10035000BCF1FF0F34DD466800242EE004F1080CE8
:100360004FF0010808FA0CF5B1F800C00CEA0503DB
:10037000AB4221D1A5004FF00F0C0CFA05F7BE439C
:1003800002FA05FC4CEA060691F803C0BCF1280FFE
:1003900005D104F1080C08FA0CF8C0F8148091F8A3
:1003A00003C0BCF1480F07D104F1080C4FF001085D
:1003B00008FA0CF8C0F81080641C082CCED34660F4
:1003C000BDE8F081416170470161704729B1064A7B
:1003D00092690243044B9A6104E0034A92698243A2
:1003E000014B9A61704700000010024010B500F008
:1003F000DDF8024800F004F810BD000014000020F1
:1004000030B500210022002300242E4D6D6805F038
:100410000C0121B1042905D0082923D105E02A4D7A
:10042000056022E0284D05601FE0264D6D6805F44B
:100430007012022505EB9242224D6D6805F480335F
:100440001BB9224D554305600BE01E4D6D6815F438
:10045000003F03D01D4D5543056002E01A4D554342
:10046000056002E0184D056000BF00BF154D6D68C6
:1004700005F0F0010909164D6C5C0568E540456022
:10048000104D6D6805F4E061090A114D6C5C45681A
:10049000E54085600B4D6D6805F46051C90A0C4D4F
:1004A0006C5C4568E540C560064D6D6805F44041EB
:1004B000890B074D10356C5CC568B5FBF4F505611B
:1004C00030BD00000010024000127A0000093D001B
:1004D0000000002010B500F001F810BD0020002140
:1004E000304A126842F480322E4B1A6000BF2D4A07
:1004F000126802F40031401C11B9B0F5A06FF6D1BA
:10050000284A126812F4003F01D0012100E00021C6
:10051000012943D1244A126842F01002224B1A608A
:100520001A46126822F003021A601A46126842F054
:1005300002021A601B4A52681A4B5A601A465268E5
:100540005A601A46526842F480625A601A465268EB
:1005500022F47C125A601A46526842F4E8125A6039
:100560001A46126842F080721A6000BF0D4A126883
:1005700012F0007FFAD00B4A526822F00302094BB6
:100580005A601A46526842F002025A6000BF054A99
:10059000526802F00C02082AF9D101E000BFFEE720
:1005A00070470000001002400020024010B51048C3
:1005B000006840F001000E490860084640680D4997
:1005C00008400B494860084600680B490840084944
:1005D00008600846006820F48020086008464068EB
:1005E00020F4FE00486000208860FFF773FF10BD14
:1005F000001002400000FFF8FFFFF6FE10B54FF4B8
:10060000FA6400BFFFF71FFEFFF723FE00BF0121C2
:100610002548FFF7D7FE02212348FFF7D3FE042128
:100620002148FFF7CFFE08211F48FFF7CBFE10211E
:100630001D48FFF7C7FE20211B48FFF7C3FE4021DE
:100640001948FFF7BFFE80211748FFF7BBFE204681
:10065000FFF700FE2046FFF7FDFD01211248FFF7DE
:10066000B3FE02211048FFF7AFFE04210E48FFF74A
:10067000ABFE08210C48FFF7A7FE10210A48FFF740
:10068000A3FE20210848FFF79FFE40210648FFF700
:100690009BFE80210448FFF797FE2046FFF7DAFD16
:1006A0002046FFF7D7FDB2E70008014010B5FFF77D
:1006B000B9FD4FF00001016010BD0000DC0600082C
:1006C000000000201400000028010008F0060008C7
:1006D0001400002074020000440100080000000023
:1006E00001020304010203040607080902040608C4
:00000001FF
